{
  "contractName": "FinanceLedger",
  "abi": [
    {
      "inputs": [
        {
          "internalType": "uint256",
          "name": "",
          "type": "uint256"
        }
      ],
      "name": "transactions",
      "outputs": [
        {
          "internalType": "uint256",
          "name": "id",
          "type": "uint256"
        },
        {
          "internalType": "string",
          "name": "purpose",
          "type": "string"
        },
        {
          "internalType": "uint256",
          "name": "amount",
          "type": "uint256"
        },
        {
          "internalType": "uint256",
          "name": "timestamp",
          "type": "uint256"
        }
      ],
      "stateMutability": "view",
      "type": "function"
    },
    {
      "inputs": [
        {
          "internalType": "uint256",
          "name": "id",
          "type": "uint256"
        },
        {
          "internalType": "string",
          "name": "purpose",
          "type": "string"
        },
        {
          "internalType": "uint256",
          "name": "amount",
          "type": "uint256"
        }
      ],
      "name": "logTransaction",
      "outputs": [],
      "stateMutability": "nonpayable",
      "type": "function"
    },
    {
      "inputs": [],
      "name": "getTransactionCount",
      "outputs": [
        {
          "internalType": "uint256",
          "name": "",
          "type": "uint256"
        }
      ],
      "stateMutability": "view",
      "type": "function"
    },
    {
      "inputs": [
        {
          "internalType": "uint256",
          "name": "index",
          "type": "uint256"
        }
      ],
      "name": "getTransaction",
      "outputs": [
        {
          "internalType": "uint256",
          "name": "",
          "type": "uint256"
        },
        {
          "internalType": "string",
          "name": "",
          "type": "string"
        },
        {
          "internalType": "uint256",
          "name": "",
          "type": "uint256"
        },
        {
          "internalType": "uint256",
          "name": "",
          "type": "uint256"
        }
      ],
      "stateMutability": "view",
      "type": "function"
    },
    {
      "inputs": [],
      "name": "getAllTransactions",
      "outputs": [
        {
          "components": [
            {
              "internalType": "uint256",
              "name": "id",
              "type": "uint256"
            },
            {
              "internalType": "string",
              "name": "purpose",
              "type": "string"
            },
            {
              "internalType": "uint256",
              "name": "amount",
              "type": "uint256"
            },
            {
              "internalType": "uint256",
              "name": "timestamp",
              "type": "uint256"
            }
          ],
          "internalType": "struct FinanceLedger.Transaction[]",
          "name": "",
          "type": "tuple[]"
        }
      ],
      "stateMutability": "view",
      "type": "function"
    }
  ],
  "bytecode": "0x608060405234801561000f575f80fd5b50610cdc8061001d5f395ff3fe608060405234801561000f575f80fd5b5060043610610055575f3560e01c806327506f53146100595780632e7700f01461007757806333ea3dc8146100955780639ace38c2146100c8578063e39e0d4e146100fb575b5f80fd5b610061610117565b60405161006e9190610670565b60405180910390f35b61007f61021f565b60405161008c919061069f565b60405180910390f35b6100af60048036038101906100aa91906106f3565b61022a565b6040516100bf9493929190610766565b60405180910390f35b6100e260048036038101906100dd91906106f3565b610372565b6040516100f29493929190610766565b60405180910390f35b610115600480360381019061011091906108dc565b610432565b005b60605f805480602002602001604051908101604052809291908181526020015f905b82821015610216578382905f5260205f2090600402016040518060800160405290815f820154815260200160018201805461017390610975565b80601f016020809104026020016040519081016040528092919081815260200182805461019f90610975565b80156101ea5780601f106101c1576101008083540402835291602001916101ea565b820191905f5260205f20905b8154815290600101906020018083116101cd57829003601f168201915b505050505081526020016002820154815260200160038201548152505081526020019060010190610139565b50505050905090565b5f8080549050905090565b5f60605f805f805490508510610275576040517f08c379a000000000000000000000000000000000000000000000000000000000815260040161026c906109ef565b60405180910390fd5b5f80868154811061028957610288610a0d565b5b905f5260205f2090600402016040518060800160405290815f82015481526020016001820180546102b990610975565b80601f01602080910402602001604051908101604052809291908181526020018280546102e590610975565b80156103305780601f1061030757610100808354040283529160200191610330565b820191905f5260205f20905b81548152906001019060200180831161031357829003601f168201915b50505050508152602001600282015481526020016003820154815250509050805f01518160200151826040015183606001519450945094509450509193509193565b5f8181548110610380575f80fd5b905f5260205f2090600402015f91509050805f0154908060010180546103a590610975565b80601f01602080910402602001604051908101604052809291908181526020018280546103d190610975565b801561041c5780601f106103f35761010080835404028352916020019161041c565b820191905f5260205f20905b8154815290600101906020018083116103ff57829003601f168201915b5050505050908060020154908060030154905084565b5f604051806080016040528085815260200184815260200183815260200142815250908060018154018082558091505060019003905f5260205f2090600402015f909190919091505f820151815f015560208201518160010190816104979190610bd7565b5060408201518160020155606082015181600301555050505050565b5f81519050919050565b5f82825260208201905092915050565b5f819050602082019050919050565b5f819050919050565b6104ee816104dc565b82525050565b5f81519050919050565b5f82825260208201905092915050565b5f5b8381101561052b578082015181840152602081019050610510565b5f8484015250505050565b5f601f19601f8301169050919050565b5f610550826104f4565b61055a81856104fe565b935061056a81856020860161050e565b61057381610536565b840191505092915050565b5f608083015f8301516105935f8601826104e5565b50602083015184820360208601526105ab8282610546565b91505060408301516105c060408601826104e5565b5060608301516105d360608601826104e5565b508091505092915050565b5f6105e9838361057e565b905092915050565b5f602082019050919050565b5f610607826104b3565b61061181856104bd565b935083602082028501610623856104cd565b805f5b8581101561065e578484038952815161063f85826105de565b945061064a836105f1565b925060208a01995050600181019050610626565b50829750879550505050505092915050565b5f6020820190508181035f83015261068881846105fd565b905092915050565b610699816104dc565b82525050565b5f6020820190506106b25f830184610690565b92915050565b5f604051905090565b5f80fd5b5f80fd5b6106d2816104dc565b81146106dc575f80fd5b50565b5f813590506106ed816106c9565b92915050565b5f60208284031215610708576107076106c1565b5b5f610715848285016106df565b91505092915050565b5f82825260208201905092915050565b5f610738826104f4565b610742818561071e565b935061075281856020860161050e565b61075b81610536565b840191505092915050565b5f6080820190506107795f830187610690565b818103602083015261078b818661072e565b905061079a6040830185610690565b6107a76060830184610690565b95945050505050565b5f80fd5b5f80fd5b7f4e487b71000000000000000000000000000000000000000000000000000000005f52604160045260245ffd5b6107ee82610536565b810181811067ffffffffffffffff8211171561080d5761080c6107b8565b5b80604052505050565b5f61081f6106b8565b905061082b82826107e5565b919050565b5f67ffffffffffffffff82111561084a576108496107b8565b5b61085382610536565b9050602081019050919050565b828183375f83830152505050565b5f61088061087b84610830565b610816565b90508281526020810184848401111561089c5761089b6107b4565b5b6108a7848285610860565b509392505050565b5f82601f8301126108c3576108c26107b0565b5b81356108d384826020860161086e565b91505092915050565b5f805f606084860312156108f3576108f26106c1565b5b5f610900868287016106df565b935050602084013567ffffffffffffffff811115610921576109206106c5565b5b61092d868287016108af565b925050604061093e868287016106df565b9150509250925092565b7f4e487b71000000000000000000000000000000000000000000000000000000005f52602260045260245ffd5b5f600282049050600182168061098c57607f821691505b60208210810361099f5761099e610948565b5b50919050565b7f496e646578206f7574206f6620626f756e6473000000000000000000000000005f82015250565b5f6109d960138361071e565b91506109e4826109a5565b602082019050919050565b5f6020820190508181035f830152610a06816109cd565b9050919050565b7f4e487b71000000000000000000000000000000000000000000000000000000005f52603260045260245ffd5b5f819050815f5260205f209050919050565b5f6020601f8301049050919050565b5f82821b905092915050565b5f60088302610a967fffffffffffffffffffffffffffffffffffffffffffffffffffffffffffffffff82610a5b565b610aa08683610a5b565b95508019841693508086168417925050509392505050565b5f819050919050565b5f610adb610ad6610ad1846104dc565b610ab8565b6104dc565b9050919050565b5f819050919050565b610af483610ac1565b610b08610b0082610ae2565b848454610a67565b825550505050565b5f90565b610b1c610b10565b610b27818484610aeb565b505050565b5b81811015610b4a57610b3f5f82610b14565b600181019050610b2d565b5050565b601f821115610b8f57610b6081610a3a565b610b6984610a4c565b81016020851015610b78578190505b610b8c610b8485610a4c565b830182610b2c565b50505b505050565b5f82821c905092915050565b5f610baf5f1984600802610b94565b1980831691505092915050565b5f610bc78383610ba0565b9150826002028217905092915050565b610be0826104f4565b67ffffffffffffffff811115610bf957610bf86107b8565b5b610c038254610975565b610c0e828285610b4e565b5f60209050601f831160018114610c3f575f8415610c2d578287015190505b610c378582610bbc565b865550610c9e565b601f198416610c4d86610a3a565b5f5b82811015610c7457848901518255600182019150602085019450602081019050610c4f565b86831015610c915784890151610c8d601f891682610ba0565b8355505b6001600288020188555050505b50505050505056fea264697066735822122031e5ecef6e8ff9664edf0835e91f22aa60c9b351a05cccfb2d8f14369a24103c64736f6c63430008150033",
  "immutableReferences": {},
  "source": "// SPDX-License-Identifier: MIT\r\npragma solidity ^0.8.0;\r\n\r\ncontract FinanceLedger {\r\n    struct Transaction {\r\n        uint id;\r\n        string purpose;\r\n        uint amount;\r\n        uint timestamp;\r\n    }\r\n\r\n    Transaction[] public transactions;\r\n\r\n    function logTransaction(uint id, string memory purpose, uint amount) public {\r\n        transactions.push(Transaction(id, purpose, amount, block.timestamp));\r\n    }\r\n\r\n    function getTransactionCount() public view returns (uint) {\r\n        return transactions.length;\r\n    }\r\n\r\n    function getTransaction(uint index) public view returns (uint, string memory, uint, uint) {\r\n        require(index < transactions.length, \"Index out of bounds\");\r\n        Transaction memory txn = transactions[index];\r\n        return (txn.id, txn.purpose, txn.amount, txn.timestamp);\r\n    }\r\n\r\n    function getAllTransactions() public view returns (Transaction[] memory) {\r\n        return transactions;\r\n    }\r\n}\r\n",
  "sourcePath": "C:\\Users\\AIGow\\OneDrive\\Desktop\\Python\\Gen AI projects\\FinAI\\finverse_ai\\blockchain_layer\\contracts\\FinanceLedger.sol",
  "compiler": {
    "name": "solc",
    "version": "0.8.21+commit.d9974bed.Emscripten.clang"
  },
  "schemaVersion": "3.4.16",
  "updatedAt": "2025-06-23T19:01:19.569Z",
  "devdoc": {
    "kind": "dev",
    "methods": {},
    "version": 1
  },
  "userdoc": {
    "kind": "user",
    "methods": {},
    "version": 1
  }
}